:100000000C9446000C9465000C9465000C946500FB
:100010000C9465000C9465000C9465000C946500CC
:100020000C9465000C9465000C9465000C946500BC
:100030000C9465000C9465000C9465000C946500AC
:100040000C9465000C9465000C9465000C9465009C
:100050000C9465000C9465000C9465000C9465008C
:100060000C9465000C9465000C9465000C9465007C
:100070000C9465000C9465000C9465000C9465006C
:100080000C9465000C9465000C94650011241FBE4F
:10009000CFEFD0E4DEBFCDBF11E0A0E0B1E0ECEFE8
:1000A000F1E000E00BBF02C007900D92AE30B10747
:1000B000D9F721E0AEE0B1E001C01D92A331B20753
:1000C000E1F70E94F0000C94FC000C940000CF9328
:1000D000C82F8A3019F48DE00E9467008091C0001B
:1000E00085FFFCCFC093C60080E090E0CF910895DB
:1000F0003091120140911101832F842B80930E01C6
:1001000080B1282F217080910F01909110018130D2
:10011000910571F030F08230910519F1039789F162
:1001200057C081E090E09093100180930F0154C07C
:10013000222339F081E090E09093100180930F0129
:100140004BC081E280930E0180E28093120181E036
:100150008093110182E090E09093100180930F0151
:100160003BC0211107C082E090E090931001809382
:100170000F0132C083E090E09093100180930F0153
:100180002BC0222339F083E090E0909310018093FC
:100190000F0122C0369530931201440F4093110194
:1001A000383040F4453030F080E28093120181E035
:1001B000809311019091120180911101892B8093FC
:1001C0000E0182E090E09093100180930F0104C033
:1001D0001092100110920F0180910E0188B90895BC
:1001E00011B88FEF82B987B918B810921001109228
:0C01F0000F010E947800FDCFF894FFCFB3
:0E01FC0000000002000000006700000000008C
:00000001FF
